:1000000045C1000060C100005EC100005CC100008D
:100010005AC1000058C1000056C1000054C1000080
:1000200052C1000050C100004EC100004CC1000090
:100030004AC1000048C1000046C1000044C10000A0
:1000400025C3000040C100003EC100003CC10000CB
:100050003AC1000038C1000036C1000034C10000C0
:1000600032C1000030C100002EC100002CC10000D0
:100070002AC1000028C1000026C1000024C10000E0
:1000800022C1000020C100001EC100004900000084
:100090000000000000000000000000000000000060
:1000A0000000000000000000000000004700000009
:1000B0000000000000000000000000000000000040
:1000C00000000000000000000000000048000000E8
:1000D0000000000000000000000000000000000020
:1000E00000000000000000000000000045000000CB
:1000F0000000000000000000000000000000000000
:100100000000000000000000000000004A000000A5
:1001100000000000000000000000000000000000DF
:1001200000000000000000000000000000000000CF
:1001300000000000000000000000000000000000BF
:100140000000000000000000000000004F004D0013
:1001500000004C000000000000004A000000000009
:10016000000000000000000000000000430041000B
:10017000000040000000000000003E000000000001
:10018000000000000000000000003C000000000033
:10019000000000000000000000000000000000005F
:1001A0000000000000000000000000004700000008
:1001B000000000000000000000000000000000003F
:1001C0000000000000000000000000003D000000F2
:1001D000000000000000000000000000000000001F
:1001E00000000000000000000000000046000000C9
:1001F00000000000000000000000000000000000FF
:100200000000000000000000000000004B000000A3
:1002100000000000000000000000000000000000DE
:1002200000000000000000000000000000000000CE
:1002300000000000000000000000000000000000BE
:1002400000000000000000000000000050004E0010
:10025000000000000000000000004B000000000053
:100260000000000000000000000000004400420008
:10027000000000000000000000003F00000000003F
:10028000000000000000000000003D0011241FBE1F
:10029000CFEFD0E4DEBFCDBF12E0A0E0B1E0E2EAF4
:1002A000F2E100E00BBF02C007900D92A434B10749
:1002B000D9F722E0A4E4B2E001C01D92A235B20752
:1002C000E1F746D2ECC79CCE82E08093B8008093E1
:1002D000B90084E08093BC00089584EA8093BC0058
:1002E000ECEBF0E080818823ECF708958093BB006D
:1002F00084E88093BC00ECEBF0E080818823ECF78D
:100300000895892B31F484EC8093BC00ECEBF0E091
:1003100004C084E88093BC00F9CF80818823ECF787
:100320008091BB0090E008951F93CF93DF93C82F77
:10033000162FCADFD2DFD0E0CC0FDD1FCE01D6DF13
:10034000812F90E0D3DFC9DFCE010196CFDF81E0BE
:1003500090E0D7DF24E92093BC009927DF91CF916B
:100360001F9108951F93CF93DF93C82F162FD42F7B
:10037000ABDFB3DF8C2F90E0880F991FB7DF812FA1
:1003800090E0B4DF8D2F90E0B1DF84E98093BC0072
:10039000DF91CF911F910895CF93DF9368E28CE5B1
:1003A000C3DFC82F69E28CE5BFDFD82F6AE28CE596
:1003B000BBDF90E0A0E0B0E0BA2FA92F982F8827EC
:1003C0008D0F911DA11DB11DBA2FA92F982F882720
:1003D000BC01CD016C0F711D811D911DDF91CF916D
:1003E000089540E560E18CE5BDCF0895D5DF6093C9
:1003F0004402709345028093460290934702089509
:100400000F931F93C9DF0091440210914502209180
:10041000460230914702601B710B820B930B1F91B8
:100420000F91089599236CF06D3921E372078105CE
:1004300091054CF424E630E040E050E008D4822FEF
:10044000089580E008958FE70895ECDF86958695FE
:10045000089584B1807F84B987B18F7387B985B1DE
:100460008F6085B988B1806C88B9089583B196B1E1
:10047000907C969596958F70892B0895F7DFEBE425
:10048000F2E040E050E0682F70E02081922F990F59
:100490009B01042E02C0359527950A94E2F721703E
:1004A000292B21934F5F5F4F4630510571F7089517
:1004B00090914A0290934902EBE4F2E020E030E0B0
:1004C00061E070E081918F708F3049F4AB01022EB2
:1004D00002C0440F551F0A94E2F7942B0CC08111FF
:1004E0000AC0DB01022E02C0AA0FBB1F0A94E2F76A
:1004F000AD01409594232F5F3F4F2630310511F712
:1005000090934A02089580914A0290914902982B53
:10051000892790914802892B8093480208959091F1
:100520004802692F70E0892F817090FD0EC021E094
:1005300030E0E22FF22FAB01022E02C05595479515
:100540000A94E2F740FF11C002C0F0E0E0E021E0D1
:1005500030E002C0220F331FFA95E2F72095922374
:100560009093480281E08E0F08952F5F3F4F263011
:100570003105F9F60895E82FF0E0EE0FFF1FE4577C
:10058000FF4F85919491009711F48DE390E00895C9
:10059000482F60E08EE3E6DE8FEA94E00197F1F702
:1005A00000C000000895482F60E48EE3DBDE80EA9F
:1005B0008A95F1F7089500247695679507947695C6
:1005C00067950794762F602D860F971F8068E0CF80
:1005D000089588E3DDDF8FEA94E00197F1F700C02A
:1005E000000089E3D5DF8FEA94E00197F1F700C0BE
:1005F000000084E1CDDF8FEA94E00197F1F700C0BD
:1006000000008FE7C5DF8FEA94E00197F1F700C0A3
:10061000000084E5BDDF8FEA94E00197F1F700C0A8
:1006200000008CE6B5DF9FEF23EC89E0915020407D
:100630008040E1F700C0000088E3AADF8FEA94E081
:100640000197F1F700C0000081E0A2DF8FEA94E09B
:100650000197F1F700C000008CE09ADF9FEF23ECD8
:1006600089E0915020408040E1F700C000000895EB
:10067000CF93DF93EC018881882329F0219693DFC3
:1006800089918111FCCFDF91CF9108951F920F9234
:100690000FB60F9211240BB60F922F933F934F93E7
:1006A0005F936F937F938F939F93AF93BF93EF93DA
:1006B000FF9380915102833031F481E080930001F7
:1006C0001092510205C0809151028F5F80935102B8
:1006D000D5DEEEDE18DFFF91EF91BF91AF919F91D4
:1006E0008F917F916F915F914F913F912F910F90DB
:1006F0000BBE0F900FBE0F901F901895259A08956E
:1007000088E18093C1001092C50087E68093C40001
:100710000895E0ECF0E0908195FFFDCF8093C60056
:100720000895CF93DF93EC018881882329F02196E7
:10073000F0DF89918111FCCFDF91CF91089582E0A4
:1007400084BD95E095BD90E197BD80936E000895BE
:10075000CF93DF93CDB7DEB7C456D1090FB6F89467
:10076000DEBF0FBECDBF0FD180E019D1C7DF71DE74
:10077000C7DF2FEF81EE94E0215080409040E1F7F9
:1007800000C000004ED1A8D1F0D12FEF81EE94E04F
:10079000215080409040E1F700C000008CE391E0E0
:1007A0009F938F9382E491E09F938F938E010F5FCD
:1007B0001F4F1F930F9398D2C801B3DF80E891E0D9
:1007C000B0DF87EA91E0ADDF8EEB91E0AADF87ED45
:1007D00091E0A7DFFEDE2FEF81EE94E02150804014
:1007E0009040E1F700C000008EEE91E041DF2FEF76
:1007F00089EF90E0215080409040E1F700C0000078
:1008000061E070E080E090E0D6DE2FEF89EF90E0CD
:10081000215080409040E1F700C0000085EF91E05A
:1008200027DF8DDFDEDD109251026FE08CE57CDD8D
:10083000092E000CAA0BBB0BBF93AF939F938F9312
:1008400083E092E09F938F931F930F934DD2C80143
:1008500068DF2FEF83ED90E3215080409040E1F777
:1008600000C00000C3DD0FB6F894DEBF0FBECDBFE1
:1008700000E010E00F2EF4E1CF2EF2E0DF2EF02D9D
:10088000CE0101967C01802F76DE9F938F931F937C
:100890000F93DF92CF92FF92EF9226D2C70141DFF2
:1008A0000F5F1F4F0FB6F894DEBF0FBECDBF01150F
:1008B00091E0190741F7789461E070E080E090E002
:1008C0007ADE2FEF89EF90E0215080409040E1F7F1
:1008D00000C000008BE192E0CBDE0F2EF9E28F2EFC
:1008E000F2E09F2EF02D8E010F5F1F4F0F2EF2E3CF
:1008F000AF2EF2E0BF2EF02D0F2EFDE3CF2EF2E053
:10090000DF2EF02D809100018823E1F379DD662E42
:10091000772EE82EF92E9F938F937F936F939F925C
:100920008F921F930F93E0D1662D772D8E2D9F2DE3
:100930008CDDF82E1F921F921F928F93BF92AF9261
:100940001F930F93D1D15ED016DE6F2D0C965BD125
:100950008DDDF82EE4DD1F928F931F92FF92DF92C0
:10096000CF921F930F93C0D161E070E080E090E0E0
:1009700022DEC8017DDE109200010FB6F894DEBFC2
:100980000FBECDBFBFCF8CB581658CBD84B1806BF0
:1009900084B908958EBD0DB407FEFDCF0895811171
:1009A00002C02C9A08952C980895CF93DF93D82FE6
:1009B000C62F81E0F4DF8D2FEDDF8C2FEBDF80E0A1
:1009C000EEDFDF91CF910895FF920F931F93CF93A6
:1009D000DF93C82F8B01F42E81E0E1DF8C2FDADF6B
:1009E000FF2041F0E8010F0D111D8991D3DFC017E1
:1009F000D107D9F780E0D3DFDF91CF911F910F911D
:100A0000FF90089512B88FEF81B98AE18A95F1F7C6
:100A100000C011B88AE68A95F1F700C080B18095D0
:100A2000089560E08DE1C1DF6EE082E0BEDF8FE916
:100A30009FE00197F1F700C0000061E080E0B5DFC2
:100A400060E081E0B2DF63EA8AE1AFDF8FE99FE037
:100A50000197F1F700C0000060E08AE1A6DF9FEF98
:100A600026E781E0915020408040E1F700C000007F
:100A700064E082E09ADF8FE99FE00197F1F700C020
:100A8000000060E082E091DF60EF89E18EDF6FE3DC
:100A90008BE18BDF60E084E188DF61E083E085DF6C
:100AA00066EF88E082DF9FE726E081E091502040FA
:100AB0008040E1F700C0000060E088E076DF68EF8A
:100AC00089E073DF60E08AE070DF60E487E16DDF7A
:100AD00060E088E16ACF0895CF93DF93CDB7DEB7AA
:100AE000A3970FB6F894DEBF0FBECDBF83E2E1E05F
:100AF000F1E0DE01119601900D928A95E1F766EF23
:100B000088E053DF8FE99FE00197F1F700C0000014
:100B100060E088E04ADF43E2BE016F5F7F4F87E01D
:100B200053DFA3960FB6F894DEBF0FBECDBFDF91A3
:100B3000CF9108951F93CF93DF93182FD62FC42FF3
:100B400060E08BE032DF6C2F660F660F8CE02DDFEC
:100B5000612F8DE02ADF6D2F8EE027DF60E48FE0CC
:100B600024DFDF91CF911F91089560E38FE01DDFB7
:100B700061E780E11ADF60E081E117DF68E082E190
:100B800014DF60E083E111CF0895CF93DF93CDB7F9
:100B9000DEB768970FB6F894DEBF0FBECDBFAC01CD
:100BA00088E1E4E2F1E0DE01119601900D928A9570
:100BB000E1F79A01ABEABAEA66D0969587959695E1
:100BC0008795969587959C01220F331F820F931F5F
:100BD000880F991F880F991FFA01E81BF90BFF274F
:100BE000EE0FFF1F81E090E08C0F9D1FE80FF91FB3
:100BF0008081918168960FB6F894DEBF0FBECDBF9D
:100C0000DF91CF9108951F93CF93DF93EC01162FBF
:100C1000BCDF9C01329522952F7023273F7023273C
:100C2000E22FE873582F5F779E01ABEABAEA2BD028
:100C30009695879596958795969587958150412F9E
:100C4000652F8E2B77DFDF91CF911F910895052EB1
:100C500097FB16F400940FD057FD05D023D007FC66
:100C600002D046F408C050954095309521953F4FED
:100C70004F4F5F4F089590958095709561957F4F88
:100C80008F4F9F4F0895A29FB001B39FC001A39FB4
:100C9000700D811D1124911DB29F700D811D1124B5
:100CA000911D0895A1E21A2EAA1BBB1BFD010DC0C8
:100CB000AA1FBB1FEE1FFF1FA217B307E407F5070C
:100CC00020F0A21BB30BE40BF50B661F771F881FE8
:100CD000991F1A9469F760957095809590959B017E
:100CE000AC01BD01CF0108950F931F93CF93DF9304
:100CF000CDB7DEB72E970FB6F894DEBF0FBECDBFCF
:100D00000D891E8986E08C831A8309838FEF9FE704
:100D10009E838D83AE01475E5F4F6F89788DCE01D4
:100D2000019610D0EF81F885E00FF11F10822E960A
:100D30000FB6F894DEBF0FBECDBFDF91CF911F91EC
:100D40000F9108952F923F924F925F926F927F92F0
:100D50008F929F92AF92BF92CF92DF92EF92FF92CB
:100D60000F931F93CF93DF93CDB7DEB72B970FB6BB
:100D7000F894DEBF0FBECDBF6C017B018A01FC0180
:100D800017821682838181FFBFC1CE0101963C018B
:100D9000F6019381F70193FD859193FF81917F0186
:100DA000882309F4ADC1853239F493FD859193FF11
:100DB00081917F01853221F4B60190E0D6D1E8CF50
:100DC000912C212C312CFFE1F315D8F08B3279F0E6
:100DD00038F4803279F08332A1F4232D20611DC0D4
:100DE0008D3261F0803369F4232D216016C0832D8C
:100DF0008260382EE32DE4603E2E2AC0F32DF86089
:100E00001DC037FC2DC020ED280F2A3040F08E3257
:100E1000B9F436FC75C1232D2064322E19C036FE7C
:100E200006C08AE0989E200D1124922E11C0EAE09F
:100E30002E9E200D1124222EF32DF0623F2E08C08D
:100E40008C3621F4832D8068382E02C0883641F418
:100E5000F70193FD859193FF81917F018111B3CFBC
:100E6000982F9F7D9554933028F40C5F1F4F9FE37C
:100E700099830DC0833631F0833771F0833509F0E3
:100E800055C020C0F801808189830E5F1F4F8824E0
:100E90008394912C530112C02801F2E04F0E511C93
:100EA000F801A080B18036FE03C0692D70E002C059
:100EB0006FEF7FEFC5014ED14C018201F32DFF771B
:100EC0003F2E15C0280122E0420E511CF801A080DF
:100ED000B18036FE03C0692D70E002C06FEF7FEF76
:100EE000C5012DD14C01F32DF0683F2E820133FC5A
:100EF00019C0822D90E088169906A0F4B60180E210
:100F000090E033D12A94F5CFF50137FC859137FE77
:100F100081915F01B60190E028D121102A9421E04F
:100F2000821A91088114910479F7E1C0843611F096
:100F3000893639F5F80137FE07C0608171818281F9
:100F400093810C5F1F4F08C060817181072E000CD8
:100F5000880B990B0E5F1F4FF32DFF763F2E97FFE7
:100F600009C090958095709561957F4F8F4F9F4FE9
:100F7000F0683F2E2AE030E0A30133D1882E861896
:100F800044C0853731F4232D2F7EB22E2AE030E085
:100F900025C0932D997FB92E8F36C1F018F488356E
:100FA00079F0AEC0803719F0883721F0A9C0E92F59
:100FB000E061BE2EB4FE0DC0FB2DF460BF2E09C053
:100FC00034FE0AC0292F2660B22E06C028E030E089
:100FD00005C020E130E002C020E132E0F801B7FEB8
:100FE00007C060817181828193810C5F1F4F06C0B1
:100FF0006081718180E090E00E5F1F4FA301F1D00E
:10100000882E8618FB2DFF773F2E36FE0DC0232D30
:101010002E7FA22E891458F434FE0BC032FC09C076
:10102000832D8E7EA82E05C0B82CA32C03C0B82C0F
:1010300001C0B92CA4FE0FC0FE01E80DF11D808196
:10104000803321F49A2D997EA92E09C0A2FE06C0F4
:10105000B394B39404C08A2D867809F0B394A3FCAA
:1010600010C0A0FE06C0B21480F4280C922C9B186D
:101070000DC0B21458F4B60180E290E076D0B3947B
:10108000F8CFB21418F42B1802C0982C212CA4FE0F
:101090000FC0B60180E390E068D0A2FE16C0A1FCAC
:1010A00003C088E790E002C088E590E0B6010CC07C
:1010B0008A2D867851F0A1FE02C08BE201C080E249
:1010C000A7FC8DE2B60190E050D0891430F4B6014F
:1010D00080E390E04AD09A94F8CF8A94F301E80D27
:1010E000F11D8081B60190E040D08110F6CF222022
:1010F00009F44ECEB60180E290E037D02A94F7CFC3
:10110000F6018681978102C08FEF9FEF2B960FB675
:10111000F894DEBF0FBECDBFDF91CF911F910F912D
:10112000FF90EF90DF90CF90BF90AF909F908F9007
:101130007F906F905F904F903F902F900895FC01AB
:101140000590615070400110D8F7809590958E0FF2
:101150009F1F0895FC016150704001900110D8F765
:10116000809590958E0F9F1F08950F931F93CF9397
:10117000DF93FB01238121FD03C08FEF9FEF2CC084
:1011800022FF16C0468157812481358142175307BB
:1011900044F4A081B1819D012F5F3F4F31832083B3
:1011A0008C93268137812F5F3F4F3783268314C06E
:1011B0008B01EC01FB010084F185E02D0995892B61
:1011C000E1F6D80116968D919C9117970196179686
:1011D0009C938E931697CE01DF91CF911F910F9123
:1011E0000895FA01AA27283051F1203181F1E894BD
:1011F0006F936E7F6E5F7F4F8F4F9F4FAF4FB1E00A
:101200003ED0B4E03CD0670F781F891F9A1FA11D04
:10121000680F791F8A1F911DA11D6A0F711D811D05
:10122000911DA11D20D009F468943F912AE0269FCA
:1012300011243019305D3193DEF6CF010895462F29
:101240004770405D4193B3E00FD0C9F7F6CF462F0A
:101250004F70405D4A3318F0495D31FD4052419373
:1012600002D0A9F7EACFB4E0A69597958795779530
:101270006795BA95C9F700976105710508959B01B7
:10128000AC010A2E06945795479537952795BA9540
:10129000C9F7620F731F841F951FA01D0895F8944E
:0212A000FFCF7E
:1012A20001810185007FF4BB00104000AFA00E0356
:1012B2001040002FF39B00204100AFA00E01104010
:1012C2008003818065017A019101A901C201DD01DA
:1012D200F9011702370259027D02A20256302E305E
:1012E20031002A2A2A2020202020205957696E7492
:1012F200682053657269616C20436F6E736F6C6511
:101302002020202020202A2A2A0A4669726D77612D
:1013120072652076657273696F6E3A2025730A00D2
:1013220034204F70657261746F7220464D20536F86
:10133200756E642057696E642053796E74686573A4
:10134200697A65722E0A0044657369676E65642066
:101352006279204B2E59617A6177612E0A005468B6
:1013620069732069732053657269616C20436F6EE3
:10137200736F6C652E0A00506C6561736520696E2F
:1013820070757420636F6D6D616E642E0A0059571B
:10139200696E746800496E697469616C697A696E14
:1013A200672E006C707332325F77686F616D693AD5
:1013B20025780A0025642025750A004F4B2E20202F
:1013C2002020202020202020006C707332323A2509
:1013D200640020766F766F6C3A25640A00256420DB
:0413E200256400007E
:00000001FF
