:100000004FC0000074C0000072C0000070C000004B
:100010006EC000006CC000006AC0000068C0000034
:1000200066C0000064C0000062C0000060C0000044
:100030005EC000005CC000005AC0000058C0000054
:100040001CC1000054C0000052C0000050C000009D
:100050004EC000004CC000004AC0000048C0000074
:1000600046C0000044C0000042C0000040C0000084
:100070003EC000003CC000003AC0000038C0000094
:1000800036C0000034C0000032C00000BC03C00312
:10009000C403C803AC03B003B403B80379037D03FE
:1000A00011241FBECFEFD0E4DEBFCDBF12E0A0E031
:1000B000B1E0ECE2FEE000E00BBF02C007900D9261
:1000C000A231B107D9F722E0A2E1B2E001C01D924E
:1000D000A931B207E1F710E0CFE4D0E003C02197E7
:1000E000FE0183D3CE34D107D1F7FFD193C688CF99
:1000F00082E08093B8008093B90084E08093BC00D4
:10010000089584EA8093BC00ECEBF0E080818823C2
:10011000ECF708958093BB0084E88093BC00ECEB7F
:10012000F0E080818823ECF70895892B31F484EC8A
:100130008093BC00ECEBF0E004C084E88093BC004A
:10014000F9CF80818823ECF78091BB0090E008957F
:100150001F93CF93DF93C82F162FCADFD2DFD0E0D3
:10016000CC0FDD1FCE01D6DF812F90E0D3DFC9DFBA
:10017000CE010196CFDF81E090E0D7DF24E9209324
:10018000BC009927DF91CF911F9108951F93CF93C2
:10019000DF93C82F162FD42FABDFB3DF8C2F90E067
:1001A000880F991FB7DF812F90E0B4DF8D2F90E08B
:1001B000B1DF84E98093BC00DF91CF911F91089556
:1001C000CF93DF9368E28CE5C3DFC82F69E28CE54B
:1001D000BFDFD82F6AE28CE5BBDF90E0A0E0B0E0A3
:1001E000BA2FA92F982F88278D0F911DA11DB11D02
:1001F000BA2FA92F982F8827BC01CD016C0F711D34
:10020000811D911DDF91CF91089540E560E18CE55E
:10021000BDCF0895D5DF60931202709313028093CF
:1002200014029093150208950F931F93C9DF009154
:100230001202109113022091140230911502601BDA
:10024000710B820B930B1F910F91089599236CF002
:100250006D3921E37207810591054CF424E630E005
:1002600040E050E0A6D2822F089580E008958FE705
:100270000895ECDF8695869508951F920F920FB62C
:100280000F9211248F939F938091170290911802DF
:10029000019690931802809317029F918F910F906F
:1002A0000FBE0F901F901895259A089588E18093AE
:1002B000C1001092C50087E68093C4000895E0EC69
:1002C000F0E0908195FFFDCF8093C6000895CF9315
:1002D000DF93EC018881882329F02196F0DF899152
:1002E0008111FCCFDF91CF91089582E084BD95E02C
:1002F00095BD9FEF97BD80936E0008958CB5816585
:100300008CBD84B1806B84B908958EBD0DB407FE99
:10031000FDCF0895811102C02C9A08952C9808955C
:10032000CF93DF93D82FC62F81E0F4DF8D2FEDDF41
:100330008C2FEBDF80E0EEDFDF91CF910895FF920D
:100340000F931F93CF93DF93C82F8B01F42E81E07F
:10035000E1DF8C2FDADFFF2041F0E8010F0D111DE6
:100360008991D3DFC017D107D9F780E0D3DFDF91C0
:10037000CF911F910F91FF90089560E08DE1D0DF44
:100380006EE082E0CDDF8FE99FE00197F1F700C0DA
:10039000000061E080E0C4DF60E081E0C1DF63EA8B
:1003A0008AE1BEDF8FE99FE00197F1F700C000000E
:1003B00060E08AE1B5DF9FEF26E781E091502040C1
:1003C0008040E1F700C0000064E082E0A9DF8FE92F
:1003D0009FE00197F1F700C0000060E082E0A0DF3D
:1003E00060EF89E19DDF6FE38BE19ADF60E084E1FC
:1003F00097DF61E083E094DF66EF88E091DF9FE7BD
:1004000026E081E0915020408040E1F700C00000EC
:1004100060E088E085DF68EF89E082DF60E08AE005
:100420007FDF60E487E17CDF60E088E179CF0895D9
:10043000CF93DF93CDB7DEB7A3970FB6F894DEBFA7
:100440000FBECDBF83E2E0E0F1E0DE011196019046
:100450000D928A95E1F766EF88E062DF8FE99FE011
:100460000197F1F700C0000060E088E059DF43E247
:10047000BE016F5F7F4F87E062DFA3960FB6F894EF
:10048000DEBF0FBECDBFDF91CF9108951F93CF93F5
:10049000DF93182FD62FC42F60E08BE041DF6C2F45
:1004A000660F660F8CE03CDF612F8DE039DF6D2F2A
:1004B0008EE036DF60E48FE033DFDF91CF911F9174
:1004C000089560E08FE02CCF089560E38FE028DF8F
:1004D00061E780E125DF60E081E122DF68E082E121
:1004E0001FDF60E083E11CCF0895CF93DF93CDB78A
:1004F000DEB7C456D1090FB6F894DEBF0FBECDBF2C
:10050000FDDE80E007DFD0DED1DE2FEF81EE94E06C
:10051000215080409040E1F700C000002EDF88DFCE
:10052000D4DF2FEF81EE94E0215080409040E1F73E
:1005300000C000008BE391E09F938F9381E491E0F2
:100540009F938F938E010F5F1F4F1F930F9387D140
:10055000C801BDDE8FE791E0BADE86EA91E0B7DE42
:100560008DEB91E0B4DE86ED91E0B1DEBEDE4DDED6
:1005700078946FE08CE5ECDD092E000CAA0BBB0B28
:10058000BF93AF939F938F938DEE91E09F938F9343
:100590001F930F9364D1C8019ADE2FEF83ED90E390
:1005A000215080409040E1F700C0000033DE0FB6DC
:1005B000F894DEBF0FBECDBF0F2EFEEF8F2EF1E001
:1005C0009F2EF02D0F2EF8E0AF2EF2E0BF2EF02D73
:1005D0002BDEC62ED72EE82EF92E9F938F937F9376
:1005E0006F939F928F921F930F9339D1C8016FDE43
:1005F0006C2D7D2D8E2D9F2D3CDE1F921F921F9204
:100600008F93BF92AF921F930F9329D1C8015FDEE2
:1006100086E192E078D09FEF20E782E09150204081
:100620008040E1F700C000000FB6F894DEBF0FBEB7
:10063000CDBFCECFCF93DF93CDB7DEB768970FB6E0
:10064000F894DEBF0FBECDBFAC0188E1E3E2F1E07C
:10065000DE01119601900D928A95E1F79A01ABEABD
:10066000BAEACCD096958795969587959695879575
:100670009C01220F331F820F931F880F991F880F31
:10068000991FFA01E81BF90BFF27EE0FFF1F81E00E
:1006900090E08C0F9D1FE80FF91F80819181689673
:1006A0000FB6F894DEBF0FBECDBFDF91CF91089596
:1006B000CF93DF93EC01BEDF9C01329522952F7022
:1006C00023273F702327E22FE873582F5F779E017F
:1006D000ABEABAEA93D096958795969587959695C5
:1006E0008795815045E0652F8E2BD0DEDF91CF912D
:1006F000089586E192E005C0089586E192E002C087
:10070000089508950895FF920F931F93CF93DF9359
:1007100012B88FEF81B98AE18A95F1F700C011B85C
:100720008AE68A95F1F700C0F0B0C1E0D0E00F2D65
:1007300010E001C02196FE013197C8010E2E02C0C3
:10074000959587950A94E2F780FD26C0E830F1057B
:1007500018F5EA5BFF4F49C08CE390E0A9DFEACFD0
:100760008EE390E0A5DFE6CF80E490E0A1DFE2CF6A
:1007700081E490E09DDF13C083E490E099DFDACF5D
:1007800085E490E095DFD6CF87E490E091DFD2CF8B
:1007900088E490E08DDFCECFC830D1055CF28FEFDA
:1007A000F81201C08EDEDF91CF911F910F91FF9063
:1007B0000895052E97FB16F400940FD057FD05D031
:1007C0002CD007FC02D046F408C0509540953095D7
:1007D00021953F4F4F4F5F4F0895909580957095AD
:1007E00061957F4F8F4F9F4F0895EE0FFF1F00249D
:1007F000001C0BBE0790F691E02D0994A29FB0015A
:10080000B39FC001A39F700D811D1124911DB29F44
:10081000700D811D1124911D0895A1E21A2EAA1BAD
:10082000BB1BFD010DC0AA1FBB1FEE1FFF1FA217A0
:10083000B307E407F50720F0A21BB30BE40BF50B9D
:10084000661F771F881F991F1A9469F76095709526
:10085000809590959B01AC01BD01CF0108950F9348
:100860001F93CF93DF93CDB7DEB72E970FB6F894D3
:10087000DEBF0FBECDBF0D891E8986E08C831A8333
:1008800009838FEF9FE79E838D83AE01475E5F4FA5
:100890006F89788DCE01019610D0EF81F885E00F39
:1008A000F11F10822E960FB6F894DEBF0FBECDBF9B
:1008B000DF91CF911F910F9108952F923F924F9208
:1008C0005F926F927F928F929F92AF92BF92CF92E0
:1008D000DF92EF92FF920F931F93CF93DF93CDB7E9
:1008E000DEB72B970FB6F894DEBF0FBECDBF6C01FD
:1008F0007B018A01FC0117821682838181FFBFC1BF
:10090000CE0101963C01F6019381F70193FD85919B
:1009100093FF81917F01882309F4ADC1853239F4B9
:1009200093FD859193FF81917F01853221F4B6017A
:1009300090E0D6D1E8CF912C212C312CFFE1F3159A
:10094000D8F08B3279F038F4803279F08332A1F428
:10095000232D20611DC08D3261F0803369F4232D79
:10096000216016C0832D8260382EE32DE4603E2E78
:100970002AC0F32DF8601DC037FC2DC020ED280FD4
:100980002A3040F08E32B9F436FC75C1232D206434
:10099000322E19C036FE06C08AE0989E200D112422
:1009A000922E11C0EAE02E9E200D1124222EF32D4E
:1009B000F0623F2E08C08C3621F4832D8068382EDB
:1009C00002C0883641F4F70193FD859193FF819130
:1009D0007F018111B3CF982F9F7D9554933028F4D8
:1009E0000C5F1F4F9FE399830DC0833631F083372F
:1009F00071F0833509F055C020C0F80180818983EA
:100A00000E5F1F4F88248394912C530112C028013C
:100A1000F2E04F0E511CF801A080B18036FE03C0F9
:100A2000692D70E002C06FEF7FEFC5014ED14C0120
:100A30008201F32DFF773F2E15C0280122E0420EE0
:100A4000511CF801A080B18036FE03C0692D70E012
:100A500002C06FEF7FEFC5012DD14C01F32DF0687F
:100A60003F2E820133FC19C0822D90E08816990632
:100A7000A0F4B60180E290E033D12A94F5CFF501DD
:100A800037FC859137FE81915F01B60190E028D156
:100A900021102A9421E0821A91088114910479F797
:100AA000E1C0843611F0893639F5F80137FE07C008
:100AB00060817181828193810C5F1F4F08C06081CA
:100AC0007181072E000C880B990B0E5F1F4FF32DC1
:100AD000FF763F2E97FF09C09095809570956195A0
:100AE0007F4F8F4F9F4FF0683F2E2AE030E0A301E9
:100AF00033D1882E861844C0853731F4232D2F7EBC
:100B0000B22E2AE030E025C0932D997FB92E8F3682
:100B1000C1F018F4883579F0AEC0803719F0883705
:100B200021F0A9C0E92FE061BE2EB4FE0DC0FB2D5F
:100B3000F460BF2E09C034FE0AC0292F2660B22EF1
:100B400006C028E030E005C020E130E002C020E12E
:100B500032E0F801B7FE07C0608171818281938124
:100B60000C5F1F4F06C06081718180E090E00E5FD6
:100B70001F4FA301F1D0882E8618FB2DFF773F2E43
:100B800036FE0DC0232D2E7FA22E891458F434FE7C
:100B90000BC032FC09C0832D8E7EA82E05C0B82C58
:100BA000A32C03C0B82C01C0B92CA4FE0FC0FE01B9
:100BB000E80DF11D8081803321F49A2D997EA92EB4
:100BC00009C0A2FE06C0B394B39404C08A2D8678EF
:100BD00009F0B394A3FC10C0A0FE06C0B21480F4C8
:100BE000280C922C9B180DC0B21458F4B60180E268
:100BF00090E076D0B394F8CFB21418F42B1802C05A
:100C0000982C212CA4FE0FC0B60180E390E068D0A0
:100C1000A2FE16C0A1FC03C088E790E002C088E5F0
:100C200090E0B6010CC08A2D867851F0A1FE02C07A
:100C30008BE201C080E2A7FC8DE2B60190E050D0CB
:100C4000891430F4B60180E390E04AD09A94F8CF4A
:100C50008A94F301E80DF11D8081B60190E040D047
:100C60008110F6CF222009F44ECEB60180E290E04A
:100C700037D02A94F7CFF6018681978102C08FEF93
:100C80009FEF2B960FB6F894DEBF0FBECDBFDF915E
:100C9000CF911F910F91FF90EF90DF90CF90BF9079
:100CA000AF909F908F907F906F905F904F903F900C
:100CB0002F900895FC010590615070400110D8F705
:100CC000809590958E0F9F1F0895FC016150704094
:100CD00001900110D8F7809590958E0F9F1F089571
:100CE0000F931F93CF93DF93FB01238121FD03C05B
:100CF0008FEF9FEF2CC022FF16C0468157812481C1
:100D000035814217530744F4A081B1819D012F5FC3
:100D10003F4F318320838C93268137812F5F3F4F54
:100D20003783268314C08B01EC01FB010084F1851D
:100D3000E02D0995892BE1F6D80116968D919C91AD
:100D40001797019617969C938E931697CE01DF9175
:100D5000CF911F910F910895FA01AA27283051F1E0
:100D6000203181F1E8946F936E7F6E5F7F4F8F4FDC
:100D70009F4FAF4FB1E03ED0B4E03CD0670F781F3B
:100D8000891F9A1FA11D680F791F8A1F911DA11D20
:100D90006A0F711D811D911DA11D20D009F4689459
:100DA0003F912AE0269F11243019305D3193DEF601
:100DB000CF010895462F4770405D4193B3E00FD0B7
:100DC000C9F7F6CF462F4F70405D4A3318F0495DA2
:100DD00031FD4052419302D0A9F7EACFB4E0A69585
:100DE0009795879577956795BA95C9F700976105A7
:100DF000710508959B01AC010A2E069457954795FD
:100E000037952795BA95C9F7620F731F841F951FF1
:100E1000A01D089510E0CFE4D0E003C0FE01E5DCA2
:0C0E20002196C035D107D1F7F894FFCF20
:100E2C0081014300E7FF9D0010402033E273005026
:100E3C00401041D35B0010412063D402011040806C
:100E4C0003818065017A019101A901C201DD01F9DB
:100E5C00011702370259027D02A20256302E3031A0
:100E6C00002A2A2A2020202020205957696E7468D5
:100E7C002053657269616C20436F6E736F6C6520D3
:100E8C0020202020202A2A2A0A4669726D77617256
:100E9C00652076657273696F6E3A2025730A00348B
:100EAC00204F70657261746F7220464D20536F75C0
:100EBC006E642057696E642053796E74686573692B
:100ECC007A65722E0A0044657369676E65642062E8
:100EDC0079204B2E59617A6177612E0A005468692A
:100EEC00732069732053657269616C20436F6E7354
:100EFC006F6C652E0A00506C6561736520696E70AD
:100F0C00757420636F6D6D616E642E0A006C707366
:100F1C0032325F77686F616D693A25780A006C70C0
:100F2C007332323A25640A00766F766F6C3A256418
:020F3C000A00A9
:00000001FF
