S01600005957696E74685F4D61696E4D50552E73726563D5
S113000065C2000081C200007FC200007DC2000002
S11300107BC2000079C2000077C2000075C20000F4
S113002073C2000071C200006FC200006DC2000004
S11300306BC2000069C2000067C2000065C2000014
S113004081C4000061C200005FC200005DC2000004
S11300505BC2000059C2000057C2000055C2000034
S113006053C2000051C200004FC200004DC2000044
S11300704BC2000049C2000047C2000045C2000054
S113008043C2000041C200003FC200000000000063
S1130090000000000000000000000000000000005C
S11300A00000000000000000000000004700000005
S11300B0000000000000000000000000000000003C
S11300C000000000000000000000000048000000E4
S11300D0000000000000000000000000000000001C
S11300E000000000000000000000000045000000C7
S11300F000000000000000000000000000000000FC
S11301000000000000000000000000004A000000A1
S113011000000000000000000000000000000000DB
S113012000000000000000000000000000000000CB
S113013000000000000000000000000000000000BB
S11301400000000000000000000000004F004D000F
S113015000004C000000000000004A000000000005
S11301600000000000000000000000004300410007
S1130170000040000000000000003E0000000000FD
S1130180000000000000000000003C00000000002F
S1130190000000000000000000000000000000005B
S11301A00000000000000000000000004700000004
S11301B0000000000000000000000000000000003B
S11301C00000000000000000000000003D000000EE
S11301D0000000000000000000000000000000001B
S11301E000000000000000000000000046000000C5
S11301F000000000000000000000000000000000FB
S11302000000000000000000000000004B0000009F
S113021000000000000000000000000000000000DA
S113022000000000000000000000000000000000CA
S113023000000000000000000000000000000000BA
S113024000000000000000000000000050004E000C
S1130250000000000000000000004B00000000004F
S11302600000000000000000000000004400420004
S1130270000000000000000000003F00000000003B
S1130280000000000000000000003D00000101002B
S113029000011F04060464030000FBFC0000FF00CF
S11302A005FFFF114E0356035E0366036E03EE0261
S11302B0F602FE0206030E0316031E0326032E0394
S11302C036033E034603CE02D602DE02E60220597E
S11302D057696E7468002020466C75746500202090
S11302E0202053617800446967486F726E0020478C
S11302F02020202D350020416220202D3400204173
S11303002020202D33005B42625D202D32002042EC
S11303102020202D31005B43205D2020300020442C
S11303206220202B310020442020202B32005B450A
S1130330625D202B330020452020202B34005B46B7
S1130340205D202B350020462320202B36005369C6
S11303506E57617665004272617373203100427298
S11303606173732032005371755761766500536170
S113037077576176650082039603AA03BE03D2030E
S1130380E6034D6173746572566F6C756D6520007C
S1130390000000000000507269736574546F6E654C
S11303A0202020000000000000005472616E737071
S11303B06F736520202020000000000000004F63C0
S11303C07461766520202020202020000000000099
S11303D000004272656174684C6576656C2020008B
S11303E000000000000046696E676572202020202E
S11303F020202000000000000000810185007FF41F
S1130400BB00104000AFA00E031040002FF39B0070
S1130410204100AFA00E011040800381808101853E
S113042000747A55002000008DA00E0310000074A3
S11304307A42001000008CA00E011010800381800D
S113044081018500747B56001000008DA00203001A
S11304500800747B42001000008CA0020110088088
S1130460038180810185007FF4BB00103000AFA0C0
S11304700E031030002FF39B00203100AFA00E01BB
S1130480103080038180810185007FF4BB0010C09F
S113049000AFA00E0310C0002FF39B0020C100AFDB
S11304A0A00E0110C08003818081014300E7FF9DFD
S11304B00010402033E2730050401041D35B001021
S11304C0412063D4020110408003818011241FBEA7
S11304D0CFEFD0E4DEBFCDBF12E0A0E0B1E0E8E6AC
S11304E0F8E100E00BBF02C007900D92A032B10703
S11304F0D9F722E0A0E2B2E001C01D92A733B2070F
S1130500E1F763D20C94320C7BCD82E08093B80087
S113051088E08093B90084E08093BC00089584EA65
S11305208093BC00ECEBF0E080818823ECF7089525
S11305308093BB0084E88093BC00ECEBF0E0808106
S11305408823ECF70895892B31F484EC8093BC0064
S1130550ECEBF0E004C084E88093BC00F9CF808128
S11305608823ECF78091BB0090E008951F93CF930C
S1130570DF93C82F162FC9DFD2DFD0E0CC0FDD1FE9
S1130580CE01D6DF812F90E0D3DFC9DFCE01019603
S1130590CFDF81E090E0D7DF24E92093BC009927E6
S11305A0DF91CF911F9108951F93CF93DF93C82FAD
S11305B0162FD42FAADFB3DF8C2F90E0880F991F5A
S11305C0B7DF812F90E0B4DF8D2F90E0B1DF84E9B5
S11305D08093BC00DF91CF911F910895CF93DF9357
S11305E068E28CE5C3DFC82F69E28CE5BFDFD82F52
S11305F06AE28CE5BBDF90E0A0E0B0E0BA2FA92F5F
S1130600982F88278D0F911DA11DB11DBA2FA92FD9
S1130610982F8827BC01CD016C0F711D811D911D80
S1130620DF91CF91089540E560E18CE5BDCF089559
S1130630D5DF60932002709321028093220290936D
S1130640230208950F931F93C9DF00912002109194
S113065021022091220230912302601B710B820B34
S1130660930B1F910F91089599236CF06D3921E339
S11306707207810591054CF424E630E040E050E037
S1130680BBD5822F089580E008958FE70895ECDFAD
S113069086958695089584B1807F84B987B18F73D8
S11306A087B985B18F6085B988B1806C88B90895A0
S11306B083B196B1907C969596958F70892B089509
S11306C0F7DFE5E2F2E040E050E0682F70E02081DF
S11306D0922F990F9B01042E02C0359527950A94F9
S11306E0E2F72170292B21934F5F5F4F463051056C
S11306F071F708959091010190930001E5E2F2E011
S113070020E030E061E070E081918F708F3049F437
S1130710AB01022E02C0440F551F0A94E2F7942B3A
S11307200CC081110AC0DB01022E02C0AA0FBB1F3C
S11307300A94E2F7AD01409594232F5F3F4F263092
S1130740310511F790930101089580910101909171
S11307500001982B892790912402892B80932402ED
S1130760089590912402692F70E0892F817090FD83
S11307700EC021E030E0E22FF22FAB01022E02C0C6
S1130780559547950A94E2F740FF11C002C0F0E086
S1130790E0E021E030E002C0220F331FFA95E2F7D7
S11307A0209592239093240281E08E0F08952F5F69
S11307B03F4F26303105F9F6089588E18093C10052
S11307C01092C50087E08093C4000895E0ECF0E047
S11307D0908195FFFDCF8093C6000895CF93DF935A
S11307E0EC018881882329F02196F0DF8991811119
S11307F0FCCFDF91CF910895E82FF0E0EE0FFF1FBB
S1130800E457FF4F25913491C9010097B1F08091CD
S11308102C02082E000C990BAC01440F551F840FB9
S1130820951F880F991F880F991F40912B02840FE1
S1130830911D47FD9A95820F931F089580932C0272
S1130840089580932B020895482F60E08EE3ACDE78
S11308508FEA94E00197F1F700C000000895482F53
S113086060E48EE3A1DE80EA8A95F1F7089500241E
S1130870769567950794769567950794762F602DFE
S1130880860F971F8068E0CF089588E3DDDF8FEA45
S113089094E00197F1F700C0000089E3D5DF8FEA07
S11308A094E00197F1F700C0000084E1CDDF8FEA06
S11308B094E00197F1F700C000008FE7C5DF8FEAED
S11308C094E00197F1F700C0000084E5BDDF8FEAF2
S11308D094E00197F1F700C000008CE6B5DF9FEFCC
S11308E023EC89E0915020408040E1F700C00000F3
S11308F088E3AADF8FEA94E00197F1F700C00000D3
S113090081E0A2DF8FEA94E00197F1F700C00000D4
S11309108CE09ADF9FEF23EC89E0915020408040E7
S1130920E1F700C000000895CF93DF93EC018881C4
S1130930882329F0219693DF89918111FCCFDF91DF
S1130940CF9108951F920F920FB60F9211240BB6F8
S11309500F922F933F934F935F936F937F938F9354
S11309609F93AF93BF93EF93FF9380912D028330B6
S113097031F481E08093020110922D0205C0809130
S11309802D028F5F80932D029BDEB4DEDEDEFF91AD
S1130990EF91BF91AF919F918F917F916F915F91F3
S11309A04F913F912F910F900BBE0F900FBE0F9060
S11309B01F901895259A089582E084BD95E095BD11
S11309C090E197BD80936E000895CF93DF93CDB7E8
S11309D0DEB7C456D1090FB6F894DEBF0FBECDBF43
S11309E06BD280E075D2E6DF56DEECD246D392D3EA
S11309F06FE18CE390E0DCD3E0DE8EE391E09F9343
S1130A008F9384E491E09F938F938E010F5F1F4F28
S1130A101F930F934CD4C801E1DE82E891E0DEDE3F
S1130A2089EA91E0DBDE80EC91E0D8DE89ED91E0AB
S1130A30D5DEE4D12FEF81EE94E021508040904048
S1130A40E1F700C0000021DF2FEF81EE94E0215098
S1130A5080409040E1F700C0000080EF91E064DF47
S1130A602FEF89EF90E0215080409040E1F700C0E3
S1130A70000061E070E08BE090E0F9DE2FEF89EF99
S1130A8090E0215080409040E1F700C000008EE3E8
S1130A9091E04ADF2FEF89EF90E0215080409040B1
S1130AA0E1F700C0000032D387DFBDDD10922D02D4
S1130AB02FEF89E698E1215080409040E1F700C093
S1130AC00000B6DD2FEF89E698E121508040904088
S1130AD0E1F700C0000081E0C6D1E2D078940F9025
S1130AE00F900F900F900F900F9000E0A12C809129
S1130AF002018823E1F3A6DD6B017C01C8DDB82E79
S1130B00C701B601B1DD182F4ED276DE7C01009705
S1130B1019F06B2D4DD301C0F9D2143128F441E002
S1130B206A2D81E08BD10AC0043128F4412F6E2D47
S1130B3081E084D103C0612F81E0ABD129D110922F
S1130B400201012FAE2CD3CFE0912E02F0912F029F
S1130B50808174CE0895E0912E02F0912F0280815D
S1130B6070CE0895E0912E02F0912F028081E3C1AE
S1130B7008950F931F93CF93DF93CDB7DEB7C0557E
S1130B80D1090FB6F894DEBF0FBECDBF80913602F7
S1130B9090E09C01205D3D4F30932F0220932E0264
S1130BA0FC01E457FD4F25913491122FFC01EE0F07
S1130BB0FF1FEA58FC4F65917491CE01899669D361
S1130BC0BE01675D7F4FCE0101966AD311111BC030
S1130BD0E0912E02F0912F028081282F082E000C24
S1130BE0330B3F938F9387EF91E09F938F93CE01C5
S1130BF045969F938F935BD30F900F900F900F9018
S1130C000F900F9031C02091360230E0F901E25686
S1130C10FD4F85919491F901E856FD4F259134914A
S1130C20E0912E02F0912F02E081E80FE21BF0E048
S1130C30EE0FFF1FEC55FD4F659174918E01035C1F
S1130C401F4FC80126D31F930F9388E092E09F9310
S1130C508F93CE0145969F938F9329D30F900F9036
S1130C600F900F900F900F9060E070E080E090E0A4
S1130C70FEDDCE01019658DE61E070E080E090E098
S1130C80F6DDCE01459650DEC05BDF4F0FB6F8941B
S1130C90DEBF0FBECDBFDF91CF911F910F9108959D
S1130CA0E0E3F2E084E1808311821282138282E322
S1130CB0848310923602F0932F02E0932E0259CFD0
S1130CC00895813069F480913602853020F48F5F75
S1130CD08093360215C0853089F41092360210C014
S1130CE08F3F61F480913602882321F081508093F4
S1130CF0360206C085E08093360202C010923602A6
S1130D008091360290E0805D9D4F90932F028093F6
S1130D102E0208952091360230E0F901EE56FD4F7F
S1130D2045915491F901E856FD4F65917491F9018B
S1130D30E05DFD4FF0932F02E0932E02813099F491
S1130D40F901E05DFD4F8081841734F4F901E05D21
S1130D50FD4F8F5F80830895481319C0F901E05D4A
S1130D60FD4F608308958F3F91F4F901E05DFD4FDD
S1130D708081681734F4F901E05DFD4F8150808370
S1130D800895681304C0F901E05DFD4F40830895A0
S1130D90CF93DF931F92CDB7DEB7E3DC89838981DC
S1130DA08330A9F028F4813049F0823069F022C000
S1130DB0853091F030F0863069F01CC081E0AADF04
S1130DC00BC08FEFA7DF08C08FEF7BDF05C081E08A
S1130DD078DF02C080E075DFE0913602F0E0EE0FCC
S1130DE0FF1FEC5EFD4F0190F081E02D309709F07C
S1130DF00995BFDE0F90DF91CF91089588E180932C
S1130E00C9008FE190E09093CD008093CC000895C9
S1130E10E8ECF0E0908195FFFDCF8093CE0008953B
S1130E20CF93DF93EC018881882329F02196F0DFAA
S1130E3089918111FCCFDF91CF910895CF93DF93F6
S1130E4000D000D0CDB7DEB7806989836A834B8335
S1130E501C82CE010196E4DF0F900F900F900F904B
S1130E60DF91CF910895CF93DF9300D000D0CDB719
S1130E70DEB7806B89838BE78A831B821C82CE0159
S1130E800196CEDF0F900F900F900F90DF91CF91CE
S1130E900895CF93DF9300D01F92CDB7DEB7806D56
S1130EA089836A831B82CE010196BADF0F900F906B
S1130EB00F90DF91CF9108958CB581658CBD84B17D
S1130EC0806B84B908958EBD0DB407FEFDCF0895DF
S1130ED0811102C02C9A08952C980895CF93DF9322
S1130EE0D82FC62F81E0F4DF8D2FEDDF8C2FEBDFC1
S1130EF080E0EEDFDF91CF910895FF920F931F936F
S1130F00CF93DF93C82F8B01F42E81E0E1DF8C2F88
S1130F10DADFFF2041F0E8010F0D111D8991D3DFC5
S1130F20C017D107D9F780E0D3DFDF91CF911F91AC
S1130F300F91FF900895CF93DF93CDB7DEB7A397BA
S1130F400FB6F894DEBF0FBECDBF23E2829FC0016F
S1130F50112486509C4FDE011196AE014C5D5F4F0B
S1130F60FC01259134912D930196A417B507C1F77F
S1130F7066EF88E0B3DF8FE99FE00197F1F700C0E7
S1130F80000060E088E0AADF43E2BE016F5F7F4FAC
S1130F9087E0B3DFA3960FB6F894DEBF0FBECDBFD4
S1130FA0DF91CF91089512B88FEF81B98AE18A95C4
S1130FB0F1F700C011B88AE68A95F1F700C080B154
S1130FC08095089560E08DE189DF6EE082E086DF40
S1130FD08FE99FE00197F1F700C0000061E080E035
S1130FE07DDF60E081E07ADF63EA8AE177DF8FE921
S1130FF09FE00197F1F700C0000060E08AE16EDF36
S11310009FEF26E781E0915020408040E1F700C047
S1131010000064E082E062DF8FE99FE00197F1F76E
S113102000C0000060E082E059DF60EF89E156DF34
S11310306FE38BE153DF60E084E150DF61E083E044
S11310404DDF66EF88E04ADF9FE726E081E09150BC
S113105020408040E1F700C0000060E088E03EDF0F
S113106068EF89E03BDF60E08AE038DF60E487E135
S113107035DF60E088E132CF0895CF93DF93CDB7B9
S1131080DEB7A3970FB6F894DEBF0FBECDBF83E2E1
S1131090E3E0F1E0DE01119601900D928A95E1F70B
S11310A066EF88E01BDF8FE99FE00197F1F700C04E
S11310B0000060E088E012DF43E2BE016F5F7F4F13
S11310C087E01BDFA3960FB6F894DEBF0FBECDBF3B
S11310D0DF91CF9108951F93CF93DF93182FD62FCD
S11310E0C42F60E08BE0FADE6C2F660F660F8CE095
S11310F0F5DE612F8DE0F2DE6D2F8EE0EFDE60E431
S11311008FE0ECDEDF91CF911F91089560E08FE0D6
S1131110E5CE089560E38FE0E1DE61E780E1DEDEA5
S113112060E081E1DBDE68E082E1D8DE60E083E15B
S1131130D5CE0895CF93DF93CDB7DEB768970FB6BA
S1131140F894DEBF0FBECDBFAC0188E1E6E2F1E06A
S1131150DE01119601900D928A95E1F79A01ABEAAE
S1131160BAEA66D0969587959695879596958795CC
S11311709C01220F331F820F931F880F991F880F22
S1131180991FFA01E81BF90BFF27EE0FFF1F81E0FF
S113119090E08C0F9D1FE80FF91F80819181689664
S11311A00FB6F894DEBF0FBECDBFDF91CF91089587
S11311B01F93CF93DF93EC01162FBCDF9C01329574
S11311C022952F7023273F702327E22FE873582F8F
S11311D05F779E01ABEABAEA2BD0969587959695F0
S11311E08795969587958150412F652F8E2B73DFB8
S11311F0DF91CF911F910895052E97FB16F400946B
S11312000FD057FD05D023D007FC02D046F408C008
S113121050954095309521953F4F4F4F5F4F08951E
S113122090958095709561957F4F8F4F9F4F08954E
S1131230A29FB001B39FC001A39F700D811D112413
S1131240911DB29F700D811D1124911D0895A1E27D
S11312501A2EAA1BBB1BFD010DC0AA1FBB1FEE1F2C
S1131260FF1FA217B307E407F50720F0A21BB30B77
S1131270E40BF50B661F771F881F991F1A9469F7F3
S113128060957095809590959B01AC01BD01CF014F
S11312900895FB01DC0105900D920020E1F708950B
S11312A0FB01DC0101900D920020E1F708950F93FA
S11312B01F93CF93DF93CDB7DEB72E970FB6F89475
S11312C0DEBF0FBECDBF0D891E8986E08C831A83D5
S11312D009838FEF9FE79E838D83AE01475E5F4F47
S11312E06F89788DCE01019610D0EF81F885E00FDB
S11312F0F11F10822E960FB6F894DEBF0FBECDBF3D
S1131300DF91CF911F910F9108952F923F924F92A9
S11313105F926F927F928F929F92AF92BF92CF9281
S1131320DF92EF92FF920F931F93CF93DF93CDB78A
S1131330DEB72B970FB6F894DEBF0FBECDBF6C019E
S11313407B018A01FC0117821682838181FFBFC160
S1131350CE0101963C01F6019381F70193FD85913D
S113136093FF81917F01882309F4ADC1853239F45B
S113137093FD859193FF81917F01853221F4B6011C
S113138090E0D6D1E8CF912C212C312CFFE1F3153C
S1131390D8F08B3279F038F4803279F08332A1F4CA
S11313A0232D20611DC08D3261F0803369F4232D1B
S11313B0216016C0832D8260382EE32DE4603E2E1A
S11313C02AC0F32DF8601DC037FC2DC020ED280F76
S11313D02A3040F08E32B9F436FC75C1232D2064D6
S11313E0322E19C036FE06C08AE0989E200D1124C4
S11313F0922E11C0EAE02E9E200D1124222EF32DF0
S1131400F0623F2E08C08C3621F4832D8068382E7C
S113141002C0883641F4F70193FD859193FF8191D1
S11314207F018111B3CF982F9F7D9554933028F479
S11314300C5F1F4F9FE399830DC0833631F08337D0
S113144071F0833509F055C020C0F801808189838B
S11314500E5F1F4F88248394912C530112C02801DE
S1131460F2E04F0E511CF801A080B18036FE03C09B
S1131470692D70E002C06FEF7FEFC5014ED14C01C2
S11314808201F32DFF773F2E15C0280122E0420E82
S1131490511CF801A080B18036FE03C0692D70E0B4
S11314A002C06FEF7FEFC5012DD14C01F32DF06821
S11314B03F2E820133FC19C0822D90E088169906D4
S11314C0A0F4B60180E290E033D12A94F5CFF5017F
S11314D037FC859137FE81915F01B60190E028D1F8
S11314E021102A9421E0821A91088114910479F739
S11314F0E1C0843611F0893639F5F80137FE07C0AA
S113150060817181828193810C5F1F4F08C060816B
S11315107181072E000C880B990B0E5F1F4FF32D62
S1131520FF763F2E97FF09C0909580957095619541
S11315307F4F8F4F9F4FF0683F2E2AE030E0A3018A
S113154033D1882E861844C0853731F4232D2F7E5D
S1131550B22E2AE030E025C0932D997FB92E8F3624
S1131560C1F018F4883579F0AEC0803719F08837A7
S113157021F0A9C0E92FE061BE2EB4FE0DC0FB2D01
S1131580F460BF2E09C034FE0AC0292F2660B22E93
S113159006C028E030E005C020E130E002C020E1D0
S11315A032E0F801B7FE07C06081718182819381C6
S11315B00C5F1F4F06C06081718180E090E00E5F78
S11315C01F4FA301F1D0882E8618FB2DFF773F2EE5
S11315D036FE0DC0232D2E7FA22E891458F434FE1E
S11315E00BC032FC09C0832D8E7EA82E05C0B82CFA
S11315F0A32C03C0B82C01C0B92CA4FE0FC0FE015B
S1131600E80DF11D8081803321F49A2D997EA92E55
S113161009C0A2FE06C0B394B39404C08A2D867890
S113162009F0B394A3FC10C0A0FE06C0B21480F469
S1131630280C922C9B180DC0B21458F4B60180E209
S113164090E076D0B394F8CFB21418F42B1802C0FB
S1131650982C212CA4FE0FC0B60180E390E068D042
S1131660A2FE16C0A1FC03C088E790E002C088E592
S113167090E0B6010CC08A2D867851F0A1FE02C01C
S11316808BE201C080E2A7FC8DE2B60190E050D06D
S1131690891430F4B60180E390E04AD09A94F8CFEC
S11316A08A94F301E80DF11D8081B60190E040D0E9
S11316B08110F6CF222009F44ECEB60180E290E0EC
S11316C037D02A94F7CFF6018681978102C08FEF35
S11316D09FEF2B960FB6F894DEBF0FBECDBFDF9100
S11316E0CF911F910F91FF90EF90DF90CF90BF901B
S11316F0AF909F908F907F906F905F904F903F90AE
S11317002F900895FC010590615070400110D8F7A6
S1131710809590958E0F9F1F0895FC016150704035
S113172001900110D8F7809590958E0F9F1F089512
S11317300F931F93CF93DF93FB01238121FD03C0FC
S11317408FEF9FEF2CC022FF16C046815781248162
S113175035814217530744F4A081B1819D012F5F65
S11317603F4F318320838C93268137812F5F3F4FF6
S11317703783268314C08B01EC01FB010084F185BF
S1131780E02D0995892BE1F6D80116968D919C914F
S11317901797019617969C938E931697CE01DF9117
S11317A0CF911F910F910895FA01AA27283051F182
S11317B0203181F1E8946F936E7F6E5F7F4F8F4F7E
S11317C09F4FAF4FB1E03ED0B4E03CD0670F781FDD
S11317D0891F9A1FA11D680F791F8A1F911DA11DC2
S11317E06A0F711D811D911DA11D20D009F46894FB
S11317F03F912AE0269F11243019305D3193DEF6A3
S1131800CF010895462F4770405D4193B3E00FD058
S1131810C9F7F6CF462F4F70405D4A3318F0495D43
S113182031FD4052419302D0A9F7EACFB4E0A69526
S11318309795879577956795BA95C9F70097610548
S1131840710508959B01AC010A2E0694579547959E
S113185037952795BA95C9F7620F731F841F951F93
S10B1860A01D0895F894FFCFC8
S1131868FFFF0181018500747B56001000008DA0E4
S11318780203000800747B42001000008CA00201DF
S113188810088003818065017A019101A901C201D0
S1131898DD01F9011702370259027D02A20256300E
S11318A82E3031002A2A2A20202020202059576946
S11318B86E74682053657269616C20436F6E736F30
S11318C86C652020202020202A2A2A0A4669726D65
S11318D8776172652076657273696F6E3A20257335
S11318E80A0034204F70657261746F7220464D206F
S11318F8536F756E642057696E642053796E7468EB
S11319086573697A65722E0A0044657369676E6542
S113191864206279204B2E59617A6177612E0A001E
S1131928546869732069732053657269616C204334
S11319386F6E736F6C652E0A00506C656173652059
S1131948696E70757420636F6D6D616E642E0A0024
S11319585957696E746800202020202020202020F8
S1131968202020202533640020202020202020202F
S1131978202573000000B205AB05A4050000000093
S9030000FC
